:1000000034C100004EC100004CC100004AC10000D4
:1000100048C1000046C1000044C1000042C10000C8
:1000200040C10000A7C300000C9403123AC10000B5
:1000300038C1000036C1000034C1000032C10000E8
:1000400030C100000C9433082CC100002AC100000C
:1000500079C30000ADC1000024C1000022C100002E
:1000600020C100001EC100001CC100001AC1000018
:1000700018C1000016C1000014C1000012C1000028
:1000800010C100000EC100000CC100000AC1000038
:1000900008C1000006C1000004C1000002C1000048
:1000A00000C10000FEC00000FCC000001C033000C6
:1000B00030003000320030003000300031003200BB
:1000C00033003400350000000000180341005600E2
:1000D000520049005300500020006D006B004900A1
:1000E000490000000C03410054004D0045004C0045
:1000F00000000403090409022000010100C03209C4
:1001000004000002FF0000000705820240000A0709
:1001100005020240000A12011001FF000010EB036B
:10012000042100020102030109000A000A000B0079
:100130000C000D000D000E000F001000100012004A
:1001400013001300140016001600180019001A00FE
:100150001C001D001F002000220023002500270096
:1001600029002B002E0030003200340037003A0006
:100170003D004000430046004A004E00520055003A
:100180005A005E00630068006D00730078007E0016
:1001900084008B0091009900A000A900B100B90073
:1001A000C300CC00D600E100EC00F700040111010F
:1001B0001E012D013B014B015B016C017D01910191
:1001C000A501BA01CF01E601FE01160231024C027F
:1001D0006A028802A802CA02ED0211033803600312
:1001E0008B03B803E70318044B048104B904F50436
:1001F00034057505B90501064E069D06EF0648074C
:10020000A30704086508D0084009B6092B0AAB0A01
:10021000300BC30B510CEE0C8F0D400EF60EAF0FD2
:10022000681047111412F512ED13E214F015F916C7
:100230001B185C19911AE51B251D831E0320AB2199
:10024000302332250F27F128F82A1A2D492FA13102
:100250001434A1364539173C1A3F34426045DF4813
:10026000704C400041014243030011241FBECFEFF8
:10027000DAE0DEBFCDBF11E0A0E0B1E0ECE3F8E2F0
:1002800002C005900D92A236B107D9F721E0A2E68F
:10029000B1E001C01D92A837B207E1F747D00C9436
:1002A0001C14AECE9BB19F70892B8BB9089584B777
:1002B000877F84BF0FB6F894A8958091600088610D
:1002C00080936000109260000FBE90E080E80FB64F
:1002D000F89480936100909361000FBE8AB1806FA3
:1002E0008AB98BB18F708BB90C94E61180E3DACFA9
:1002F00080E1D8CF42E360E882E00E94481181119A
:1003000002C080E101C080E2CDCF8EB3843069F4B9
:10031000CCD182E08093E9008091E80082FF05C0A3
:1003200080E3C0DF62D080E2BDCF0895C0DF55D04A
:1003300080E1B8DF7894E9DF0E94CC13FCCF00C0E5
:10034000292F33272230310559F02330310569F048
:100350002130310529F582E190E026E131E024C029
:1003600080E290E026EF30E01FC0992781309105B0
:1003700071F050F08230910569F0039789F48CE1B7
:1003800090E02CEA30E010C0E2EFF0E005C0E4EECF
:10039000F0E002C0EAECF0E0849190E09F0104C03C
:1003A00080E090E020E030E0FA013183208308957E
:1003B00078941F920F920FB60F9211248F938AB5E3
:1003C000882321F08AB581508ABD01C015BC8F9168
:1003D0000F900FBE0F901F9018958BE987BD82E09C
:1003E00084BD80936E002BD16CC61F93CF93DF9397
:1003F000C091F10084E68ABD85E085BDC43109F471
:10040000C8C008F041C0C63009F486C050F5C430F9
:1004100018F5C23008F056C0C13009F0CAC080914A
:10042000E8008B778093E80082E08093E900809178
:10043000EC0081608093EC00C093F1001092F10019
:100440008AE08093F10040E050E06AE070E087E5E8
:1004500091E00E940610D0C0C53009F0AAC066D352
:10046000D0C0C13109F490C040F4CA3009F47AC058
:10047000C03109F09EC0F7D4C4C0C23109F48CC0A9
:10048000C33109F483C095C0C93109F48AC060F44E
:10049000C63109F47EC008F479C0C73109F481C0BF
:1004A000C83109F47BC085C0CD3109F47DC008F4A2
:1004B00075C0C03509F47AC0C13509F07AC00E9410
:1004C000C70A9FC0D091F100C23011F41091F10021
:1004D0008091E8008B778093E80082E08093E900C8
:1004E0008091EC0081608093EC00C093F1008D2F2F
:1004F000DDD0C23041F481FF0DC01092F100612FB8
:100500008D2FE4D079C080FF05C01092F1008D2FAF
:10051000D5D070C080EC6EC040E050E064E070E088
:100520008AE691E00E949A108091E8008B77809390
:10053000E80082E08093E9008091EC008160809384
:10054000EC0080916A0190916B01A0916C01B091D7
:100550006D01B7FF03C081E08093690186E080935D
:10056000F1000FC08091E8008B778093E80082E073
:100570008093E9008091EC0081608093EC00C0934F
:10058000F1001092F10038C0EDD43BC08C2F03D1A4
:1005900038C08C2F2ED235C019D533C08C2F21D323
:1005A00030C08C2F79D32DC0BDD32BC00E94F70A49
:1005B00028C02091F3008091F20090E0922B8034CB
:1005C000910541F48091E8008B778093E8000E94C8
:1005D0007911EFCF8091E8008B778093E80082E07B
:1005E0008093E9008091EC0081608093EC00C093DF
:1005F000F10089EC8093F1008091E8008E77809380
:10060000E80015BC0E94791182E08093E900809196
:10061000EC008E7F8093EC00DF91CF911F910895C5
:10062000E0E0F1E09081981741F0339691E0EE31EF
:10063000F907C1F780E090E00895CF010895CF93C6
:10064000DF9380E090E00E94ED13623174418044BA
:100650009B4E91F06FEF85E090E00E94F2136FEFF8
:1006600084E090E00E94F21342E154E160E47BEE0A
:1006700080E090E00E94041485E090E00E94E51381
:10068000D82F84E090E00E94E513C82FDF3F21F0CF
:100690008EE9C6DFFC01D283CF3F21F088E9C0DFBD
:1006A000FC01C283DF91CF9108950895B9DF0097CF
:1006B00019F0FC018181089580E00895B1DF009771
:1006C00019F0FC018281089580E00895CF93DF93B3
:1006D000D82FC62FA5DF009789F0FC01C283DE3931
:1006E00021F46C2F85E090E005C0D83939F46C2FE7
:1006F00084E090E0DF91CF910C94F213DF91CF91E1
:10070000089590911E01992331F08EBD0DB407FE1E
:10071000FDCF8EB508953CC590911E01992329F017
:100720008EBD0DB407FEFDCF089532C580911E0128
:10073000882331F01EBC0DB407FEFDCF8EB50895A1
:1007400080E026C51F920F920FB60F9211248F934F
:100750009F931A9A809163019091640101979093FD
:100760006401809363019F918F910F900FBE0F9052
:100770001F9018951F920F920FB60F9211248F930E
:10078000809162018150809362018F910F900FBE22
:100790000F901F9018952F923F924F925F926F92F9
:1007A0007F928F929F92AF92BF92CF92DF92EF9201
:1007B000FF920F931F93CF93DF93CDB7DEB7C9504E
:1007C000D1400FB6F894DEBF0FBECDBF182F40E06A
:1007D00050E069E070E0CE0101963C010E945010AB
:1007E0006A8179817A836983613091E0790788F041
:1007F0008091E8008B778093E80082E08093E900A5
:100800008091EC0081608093EC001093F10080EC0B
:10081000CFC040E050E0CE010A960E94501089817E
:100820009A810A968F739927892B39F48091E80071
:100830008B778093E8000E9479118091E8008B7794
:100840008093E80082E08093E9008091EC00816071
:100850008093EC00133111F4C88401C0C984509016
:100860006A0140906B015301E12CF12C88E0382E95
:100870002224239445018618970889819A81881635
:10088000990608F065C0F5010185DB80809169015A
:10089000882319F0D0D4109269018D813DDF8091B9
:1008A0006B013ADF80916A0137DF802F35DF13312A
:1008B00019F48D8183258D83E114F10479F4C01638
:1008C00069F08F8180FE04C0133111F4886001C08B
:1008D000877F8F83E0906A01F0906B01D0FC13C09A
:1008E000E114F10431F4D3FC04C08D2D897F8260C2
:1008F000D82E0F812C814C2DB7018D2DA5D48111BF
:1009000028C0E12CF12C80FC02C01531E9F4809163
:100910006A0190916B01A0916C01B0916D010196FB
:10092000A11DB11D80936A0190936B01A0936C018E
:10093000B0936D01133141F4AA27BB27892B8A2B71
:100940008B2B11F420926901FFEFAF1ABF0A92CFEF
:1009500080E09B8197FF2AC08E81DEDE842DDCDE65
:10096000852DDADE80E0D8DE8B8185FF06C0E114BC
:10097000F10419F48F7C80618B830F812C814C2DC5
:10098000B7018B8161D4133189F440916A01509190
:100990006B0160916C0170916D0166277727452B83
:1009A000462B472B19F491E0909369011093F100C5
:1009B0008093F1008091E8008E778093E800C75F14
:1009C000DE4F0FB6F894DEBF0FBECDBFDF91CF91E3
:1009D0001F910F91FF90EF90DF90CF90BF90AF905D
:1009E0009F908F907F906F905F904F903F902F904F
:1009F0000895DF92EF92FF920F931F93CF93DF93AF
:100A000000D01F92CDB7DEB7F82E40E050E063E093
:100A100070E0CE0101960E94501089819A819983DD
:100A20008A838091E8008B778093E80082E080934E
:100A3000E9008091EC0081608093EC00F092F1007D
:100A40001092F10000E010E088E0E82EDD24D3945D
:100A500089819A810817190708F049C080916901B6
:100A6000882319F0E8D3109269018B8155DE8091BB
:100A70006B0152DE80916A014FDE58DE8093F100F7
:100A80008091E80085FD07C08091E8008E77809313
:100A9000E8000E94791124E1F21203C08B818E25B7
:100AA0008B8300FD03C086E1F8121EC080916A01AD
:100AB00090916B01A0916C01B0916D010196A11D07
:100AC000B11D80936A0190936B01A0936C01B09368
:100AD0006D0126E1F21641F0AA27BB27892B8A2B4C
:100AE0008B2B11F4D09269010F5F1F4FB1CF109281
:100AF000F1009091E8008091E8008E778093E80003
:100B000095FD09C00E9479118091E8008E7780934D
:100B1000E8000E9479110F900F900F90DF91CF9114
:100B20001F910F91FF90EF90DF9008958091E80062
:100B30008B778093E80082E08093E9008091EC005D
:100B400081608093EC0087EF84B985B1886185B9B5
:100B500088E080936B0023EF30E03093890020938E
:100B6000880093E09093800099E190938100109227
:100B700085001092840022E338E0309364012093D2
:100B800063018093620180916800816080936800B6
:100B900081E080936F009FB778942091630130913A
:100BA0006401232B21F0809162018111F6CF8091A5
:100BB00068008E7F8093680010926F009FBF8091C5
:100BC0006201882311F080E801C080E095E09093F5
:100BD000F1008093F1008091E8008E778093E80027
:100BE0000895AF92BF92DF92EF92FF920F931F93FF
:100BF000CF93DF93CDB7DEB729970FB6F894DEBF5A
:100C00000FBECDBFD82E40E050E065E070E0CE01D1
:100C100001960E9450108091E8008B778093E80045
:100C200082E08093E9008091EC0081608093EC0089
:100C30008E010E5F1F4F7E0186E0E80EF11C57010A
:100C4000F80181918F015DDDF70181937F010A1524
:100C50001B05B1F7D092F1001092F1008981FE01DD
:100C6000E80FF11D85818093F1001092F1008091D1
:100C7000E8008E778093E80029960FB6F894DEBFDF
:100C80000FBECDBFDF91CF911F910F91FF90EF90DD
:100C9000DF90BF90AF900895CF92DF92FF920F93B5
:100CA0001F93CF93DF9300D000D0CDB7DEB7F82EDF
:100CB00040E050E064E070E0CE0101960E945010E8
:100CC0008091E8008B778093E80082E08093E900D0
:100CD0008091EC0081608093EC008E010F5F1F4FCC
:100CE0006E0185E0C80ED11CF80181918F0114DDE1
:100CF0000C151D05C9F7F092F1001092F100109249
:100D0000F1008091E8008E778093E8000F900F90BB
:100D10000F900F90DF91CF911F910F91FF90DF9077
:100D2000CF900895FF920F931F93CF93DF93CDB78A
:100D3000DEB7C250D1400FB6F894DEBF0FBECDBFB4
:100D400040E050E063E070E0CE0101960E94501058
:100D5000698170E040E050E0CE0104960E9450109E
:100D600089818F3F31F48091EB0080628093EB00AA
:100D70005FC08091E8008B778093E80082E08093E9
:100D8000E9008091EC0081608093EC008DE180931C
:100D9000F1001092F10010E08B81181778F489812E
:100DA000181740F4E4E0F0E0EC0FFD1FE10FF11D37
:100DB000808101C080E0B0DC1F5FEECF00E08A815F
:100DC000081710F58981181778F4FF24F394F10EB1
:100DD000E4E0F0E0EC0FFD1FE10FF11D808191DCFC
:100DE0008093F1001F2D03C0A1DC8093F10080915E
:100DF000E80085FD07C08091E8008E778093E800C9
:100E00000E9479110F5FDBCF1092F1009091E80002
:100E10008091E8008E778093E80095FD09C00E94DC
:100E200079118091E8008E778093E8000E94791113
:100E3000CE5FDE4F0FB6F894DEBF0FBECDBFDF91A1
:100E4000CF911F910F91FF900895882359F09AB583
:100E50008150992339F0EFE9FFE03197F1F700C0B5
:100E60000000F3CF0895CF92DF92EF92FF920F939D
:100E70001F93CF93DF93CDB7DEB72F970FB6F894BC
:100E8000DEBF0FBECDBF40E050E06BE070E0CE01B2
:100E900001960E9450108091E8008B778093E800C3
:100EA00082E08093E9008091EC0081608093EC0007
:100EB00010926A0110926B0110926C0110926D01F8
:100EC0008B81C3DF3ED181E08CD18A81BEDF8C81F2
:100ED0009FEF980F9C83882359F18AB5882341F1AD
:100EE0007E01F8E0EF0EF11C8E01045F1F4F6801D8
:100EF0008D81ABDFF70181917F0103DCF8018193E4
:100F00008F01EC14FD04A1F78F81882351F0EBE0F1
:100F1000F0E0EC0FFD1FE80FF11D90818E8198131A
:100F200002C080E006C080E05CD18A818EDFCBCF3A
:100F300080EC90E19093F1008093F1008091E800C3
:100F40008E778093E8002F960FB6F894DEBF0FBE21
:100F5000CDBFDF91CF911F910F91FF90EF90DF9068
:100F6000CF9008950F931F93CF93DF9300D0CDB709
:100F7000DEB740E050E062E070E0CE0101960E94F2
:100F8000501008EE10E0F80180818B77808382E0BA
:100F90008093E900ECEEF0E08081816080838981BC
:100FA00054DF80E01ED1A1D08A814FDFE1EFF0E075
:100FB00081E180831082F80180818E7780830F9099
:100FC0000F90DF91CF911F910F910895EF92FF92B3
:100FD0000F931F93CF93DF9300D000D000D0CDB7F5
:100FE000DEB740E050E066E070E0CE0101960E947E
:100FF00050108091E8008B778093E80082E0809326
:10100000E9008091EC0081608093EC008E010D5F1F
:101010001F4F7E0187E0E80EF11CF80181918F01DE
:101020007BDB0E151F05C9F78A81811104C08981F8
:101030000CDF80E001C0E1D092E19093F100809359
:10104000F1008091E8008E778093E80026960FB635
:10105000F894DEBF0FBECDBFDF91CF911F910F91EE
:10106000FF90EF9008951F920F920FB60F921124E8
:101070008F93199908C08091660187FF02C02A9A50
:1010800019C02A9817C080916601880F8093660165
:1010900080916501815080936501811104C0109297
:1010A000810082E086BB1B9B05C080916601816048
:1010B00080936601199A8F910F900FBE0F901F9029
:1010C0001895259A10926F00109285001092840056
:1010D00081E090E0909389008093880080E4809381
:1010E000800089E080938100089580911E0188230B
:1010F00049F084B1897F84B985B1867F85B91CBCEC
:101100001DBC089584B1897F84B985B1867F85B976
:10111000D8CF92E090936F001092850010928400D7
:10112000E82FF0E0EE0FFF1FE65EFE4F85919491F1
:101130009093890080938800109280001092810023
:10114000089588E9BBDA8730D0F491E090931E01CE
:10115000E82FF0E0EE59FD4FE491209A289A84B1EF
:10116000866084B923982B9A8DB5E6FF02C0816012
:1011700001C08E7F8DBD2098E065ECBD0895109272
:101180001E0194B1966094B995B1996095B9C1CF9B
:101190008093660188E0809365018091660187FFF6
:1011A00002C02A9A01C02A981092850010928400E9
:1011B0008AE08093810080916501882319F08AB5C7
:1011C0008111F9CF1092810080916601089590916C
:1011D0001E01992329F08EBD0DB407FEFDCF0895A1
:1011E000D7CF882339F0249A8EE968DA811103C0B9
:1011F0002C9A089524982C98089580EFE8DF80E0D9
:10120000E6DF80E0E4DF80911E01882331F01EBC20
:101210000DB407FEFDCF8EB502C080E0B9DF80FFC0
:1012200003C08AB58111E9CF8AB5811102C081E876
:10123000089580E008958DE4CADF80E0C8DF8091E2
:101240006C01C5DF80E0C3CF0F931F93CF93DF9373
:10125000D62F172FC42F8E7790E08830910579F123
:1012600034F48230910559F00497A9F02AC08032F5
:10127000910589F08034910511F1409711F5822F85
:10128000E4DD1FC00DB407FEFDCF8EB5C81312C03C
:101290008AB5882379F0802F9ADF812F98DF8D2FF0
:1012A00096DF80911E01882311F01EBCEBCF80E0F9
:1012B0006FDFECCF8AB5811104C080E803C09DDFE9
:1012C00001C080E094E69ABDDF91CF911F910F910C
:1012D0000895AF92BF92CF92DF92EF92FF920F9359
:1012E0001F93CF93DF93CDB7DEB7C850D1400FB671
:1012F000F894DEBF0FBECDBF40E050E068E070E084
:10130000CE010196CDD68B819C812D813E813B8380
:101310002C839D838E837F8168856F83788740E0EF
:1013200050E0CE010996BCD68F8198858F3F9105FC
:1013300039F030F08091EB0080628093EB0067C061
:1013400009968F739927892B31F48091E8008B7768
:101350008093E800CED78091E8008B778093E800F7
:1013600082E08093E9008091EC0081608093EC0042
:1013700080916701811130C0298121504B815C81AE
:101380006D817E812630A0F430E0F901E75CFE4FEC
:101390008081F901ED5CFE4F9081F901E35DFE4F24
:1013A000E081D901A95DBE4F2C91222369F103C0D0
:1013B000E6E293E28EE2AF80B8849E01275F3F4F62
:1013C00069017A018B012A81482F6E2F892F42D41F
:1013D00081110BC083E00AC04F815885BE01675F51
:1013E0007F4F8B819C81BAD5F3CF80E090E59093BD
:1013F000F10094E09093F1008093F1008091E80077
:101400008E778093E80003C02985FFD3E1CFC85FC2
:10141000DE4F0FB6F894DEBF0FBECDBFDF91CF9188
:101420001F910F91FF90EF90DF90CF90BF90AF9002
:101430000895CF93DF93CDB7DEB7C750D1400FB635
:10144000F894DEBF0FBECDBF40E050E067E070E033
:10145000CE018F5F9E4F24D6CE5FDE4F8881C25073
:10146000D140CD5FDE4F9881C350D140CC5FDE4F7D
:101470002881C450D140CB5FDE4F3881C550D14068
:10148000CE5FDE4F3883C250D140CD5FDE4F288320
:10149000C350D140CC5FDE4F9883C450D140CB5F66
:1014A000DE4F8883C550D140C95FDE4F8881C75069
:1014B000D140CA5FDE4F9881C650D140CA5FDE4F2F
:1014C00099838883C650D1408F3F910539F030F021
:1014D0008091EB0080628093EB004FC08091E80028
:1014E0008B778093E80082E08093E9008091EC00A4
:1014F00081608093EC0080916701CA5FDE4F288194
:101500003981C650D140811112C0CE5FDE4F688153
:1015100079818A819B81C250D140AE014F5F5F4F7C
:1015200030D3882311F080E00EC083E00CC0A90105
:10153000BE016F5F7F4FCE5FDE4F88819981C250C1
:10154000D140DFD4EECF90E59093F10095E09093F9
:10155000F1008093F10081110BC0CA5FDE4F6881FA
:101560007981C650D14040E050E0CE0101964ED581
:101570008091E8008E778093E800C95FDE4F0FB658
:10158000F894DEBF0FBECDBFDF91CF910895CF930A
:10159000DF931F92CDB7DEB740E050E061E070E02E
:1015A000CE0101967DD58091E8008B778093E8008D
:1015B00082E08093E9008091EC0081608093EC00F0
:1015C00089818093670181E58093F1008981813071
:1015D00011F480EC01C080E08093F1008091E8007C
:1015E0008E778093E8000F90DF91CF910895CF938D
:1015F000DF9300D000D000D0CDB7DEB78091F100EE
:10160000843009F492C038F4823081F108F04AC085
:10161000813051F029C1863009F48BC008F487C0AD
:10162000873009F4CFC020C18091E8008B77809388
:10163000E80082E08093E9008091EC008160809373
:10164000EC0080916701811102C01AD205C082307E
:1016500011F415D401C080E090E59093F10091E081
:101660009093F10098279093F100F9C09091E800D1
:101670009B779093E8008093E9008091EC00816073
:101680008093EC0080916701811102C034D201C0C7
:101690002DD480E58093F10082E08093F1001092D8
:1016A000F100DDC040E050E065E070E0CE01019661
:1016B000F7D48A819B812C813D813A832B839C8343
:1016C0008D838091E8008B778093E80082E080939F
:1016D000E9008091EC0081608093EC0080916701CB
:1016E000E981811114C0E150E83028F4F0E0E15CB8
:1016F000FE4F808101C080E04A815B816C817D81E9
:101700001BD3882311F080E00BC083E009C0E130D7
:1017100011F084E101C080E16A817B815AD4F1CF6C
:1017200090E59093F10093E096C0D3DD9DC081DEFB
:101730009BC040E050E061E070E0CE010696B0D47E
:101740008091E8008B778093E80082E08093E90045
:101750008091EC0081608093EC00809167018111A1
:1017600012C08E81813031F0823011F489E303C0E0
:1017700088E701C088E3BE016F5F7F4FC7D1811149
:1017800004C083E003C081E001C080E090E5909355
:10179000F10096E09093F1008093F10081115FC019
:1017A00089819A81AB81BC81CD01AA27BB27809317
:1017B000F10089819A81AB81BC818093F100892FEE
:1017C00099274BC08091F100833041F168F481305A
:1017D000A1F0823071F58091F1009091F100909329
:1017E00021018093220123C08430E9F0853009F57E
:1017F0008091F1008091F1001AC08091F1009091E8
:10180000F1002091F1003091F100309323012093F9
:101810002401909325018093260109C08091F10055
:101820008093200104C08091F10080931F0180E02B
:1018300001C081E09091E8009B779093E80092E0EE
:101840009093E9009091EC0091609093EC0090E50A
:101850009093F10097E09093F1008093F1008091D4
:10186000E8008E778093E80026960FB6F894DEBFE6
:101870000FBECDBFDF91CF9108954D99FECF4D9B07
:10188000FECF4D99FECF5B9A539A8091C9008F7E0F
:101890008093C9008091C90088608093C90081E06D
:1018A0008093680108958091C80086FFFCCF8091E5
:1018B000C80080648093C8008091C900877F8093AE
:1018C000C9008091C90080618093C90053985B98DA
:1018D000109268010895809168018111E4DF80EC25
:1018E0008093C8001092C9001092CA008AB1877D07
:1018F0008AB98BB1837D8BB908958091680181117C
:10190000D2DF8091C800806C8093C8001092C9001B
:101910001092CA008AB1877D8AB98BB1837D8BB959
:1019200024982C980895CF93C82F80916801811135
:1019300001C0A3DF8091C80085FFFCCF8091C80063
:1019400080648093C800C093CE00CF9108958091A9
:1019500068018111A8DF8091C80087FD03C08AB5A6
:101960008111F9CF8091CE00089580916801811195
:1019700001C083DF8CE04D99FECF4D9BFECF4D998A
:10198000FECF8150C1F70895109268018AB1886234
:101990008AB952985D9A5B988FE891E00197F1F7C8
:1019A00000C000005B9A9AE69A95F1F700C083E0C8
:1019B00090E09093CD008093CC0088E08093C900A4
:1019C0008FE68093CA00D1DFD0CF10926801249AAD
:1019D0002C988FE891E00197F1F700C000008AB1E0
:1019E00088628AB9529883E090E09093CD0080930A
:1019F000CC0088E08093C9008FE68093CA00B5DFF1
:101A0000B4CF1F93CF93DF93172FD82FC92F862FD3
:101A10008ADF812F88DF8D2F86DF8C2FDF91CF919A
:101A20001F9181CF0F931F93409123015091240167
:101A300060912501709126018A019B01082BC90143
:101A4000B8011F910F91DDCF80E86DDF80DF9AB57F
:101A5000992321F081FFF8CF81E0089580E0089577
:101A60008BE661DF8FE0DEDF80E25DDF70DF9AB55D
:101A7000992321F087FDF8CF81E0089580E0089553
:101A8000EF92FF920F931F93CF93DF93CDB7DEB703
:101A900028970FB6F894DEBF0FBECDBF75DF81EC7F
:101AA00042DF89E540DF82EC3EDF82E03CDF80EE12
:101AB0003ADF8E01075F1F4FCE0101967C0188E05F
:101AC000E7E4F1E0D70101900D928A95E1F7F80182
:101AD00082918F0128DF0E151F0589F728960FB612
:101AE000F894DEBF0FBECDBFDF91CF911F910F9154
:101AF000FF90EF90A9CFA8DF81EC15DF80E013DF26
:101B000081E811DF24DF8111F7CFE5CE0F931F931A
:101B1000CF93DF93182FEB01188219821A821B8250
:101B20009FDF882341F18CE4FEDE8AE07BDF812F9A
:101B3000FADE8CE4F8DE8BE075DF81E0F4DE84DF32
:101B40008823C9F08DDF8823B1F08BE6ECDE84E0DA
:101B500069DF80EAE8DE82E0E6DE84E2E4DE8E0130
:101B60000D5F1F4FF4DE8993C017D107D9F79AB5DF
:101B700081E0911101C080E0DF91CF911F910F9121
:101B80000895CF92DF92EF92FF920F931F93CF931E
:101B9000DF936B017C01EA01890162DF882361F137
:101BA0008CE4C1DE8AE03EDF83E4BDDE0230110555
:101BB000B8F08BE6B8DEC701B60123DF80EAB3DEFA
:101BC0008FEF800FB0DE84E2AEDE0C0F1D1FC0175A
:101BD000D10769F08AB5882351F0B9DE8993F7CF30
:101BE0008CE0A1DEC701B6010CDFB1DE88839AB5B7
:101BF00081E0911101C080E0DF91CF911F910F91A1
:101C0000FF90EF90DF90CF900895CF92DF92EF9208
:101C1000FF921F93CF93DF93182F6A017B01D22F7E
:101C20001FDFC82F882369F08CE47DDE8AE0FADEAE
:101C3000812F79DE8CE477DEC701B601E2DE8D2FDD
:101C400072DE8C2FDF91CF911F91FF90EF90DF908C
:101C5000CF9008954F925F926F927F928F929F9252
:101C6000AF92BF92CF92DF92EF92FF920F931F93AA
:101C7000CF93DF93C82FD62F942E822E27013801C1
:101C800020FF11C0EDDE811102C0C0E043C08CE432
:101C90004ADE8AE0C7DE8D2F46DE8CE444DE8BE030
:101CA000C1DE81E040DEA114B10421F481FC20C03A
:101CB000C1E030C0D5DE882341F38CE434DE8AE015
:101CC000B1DE8C2F30DE8BE62EDEC301B20199DE51
:101CD00080EA29DE8FEF8A0D26DE84E624DEE60127
:101CE000AC0CBD1CCA15DB0509F389911CDEFACFCB
:101CF000B7DEC82F882309F4C8CF8CE414DE8AE04D
:101D000091DE892D10DE8CE40EDEC301B20179DE96
:101D100080E009DE8C2FDF91CF911F910F91FF9012
:101D2000EF90DF90CF90BF90AF909F908F907F907B
:101D30006F905F904F900895CF92DF92EF92FF9255
:101D4000CF93C82F6A017B018BDE882309F45CC026
:101D50008CE4C03429F4E7DD8AE064DE80E438C036
:101D6000C03309F03CC0DFDD8AE05CDE86E3DBDD0A
:101D70008CE4D9DD8BE056DE81E0D5DD71DE882391
:101D800009F442C08CE4CFDD8AE04CDE83E3CBDD96
:101D90008BE6C9DDC701B60134DE80EAC4DD80917F
:101DA00021018150C0DD84E6BEDDC0E08C2F90E0D3
:101DB00020912101309122018217930720F480E0C5
:101DC000B2DDCF5FF3CF8CE4AEDD8AE02BDE80E3C3
:101DD000AADD8CE4A8DD8BE025DE81E00BC0A3DD6D
:101DE0008AE020DE8C2F9FDD8CE49DDDC701B601EB
:101DF00008DE80E098DD28DE882331F0CF91FF9067
:101E0000EF90DF90CF902CCE80E0CF91FF90EF90BD
:101E1000DF90CF900895982F9073990F8F708069FD
:101E2000892B81CDCF93DF93D82FC92F88E67BDD17
:101E30008D2F79DD89E677DD8C2FDF91CF9173CD02
:101E400080E871DD84DD9AB5992321F081FFF8CF18
:101E500081E0089580E0089590911F01892F80739B
:101E6000880F9F709061892B5EDD71DD9AB5992393
:101E700021F087FDF1CF81E0089580E00895EF9291
:101E8000FF920F931F93CF93DF93CDB7DEB72897C1
:101E90000FB6F894DEBF0FBECDBF97DD82EC43DDF9
:101EA00082E041DD80EE3FDD8E01075F1F4FCE01F6
:101EB00001967C0188E0EFE4F1E0D70101900D92FA
:101EC0008A95E1F7F80182918F012DDD0E151F052E
:101ED00089F728960FB6F894DEBF0FBECDBFDF910D
:101EE000CF911F910F91FF90EF90AACFA9DF80ECC7
:101EF0001ADD80E018DD80E816DD29DD8111F7CFDD
:101F0000FCCCEF92FF920F931F93CF93DF93EC01E2
:101F10007B018A01A1DF8823D1F0809120017BDF42
:101F200080E001DDCE017EDFE7010E0D1F1DC01731
:101F3000D10741F08AB5882329F084E2F4DC07DD7B
:101F40008993F5CF9AB581E0911101C080E0DF91CE
:101F5000CF911F910F91FF90EF900895CF92DF9254
:101F6000FF920F931F93CF93DF936C018B01EA01D4
:101F700073DFF82E811102C0F12C22C0C0FF06C011
:101F8000F801EC0FFD1F8FEF8083219680912001D7
:101F900042DF8DE1C8DCC60145DF209789F05CDFB8
:101FA000882351F384E6BFDCF8018081BCDC84E641
:101FB000BADCF8018181B7DC22970E5F1F4FEDCFAD
:101FC0008F2DDF91CF911F910F91FF90DF90CF90D8
:101FD00008951F93CF93DF93182FEB013DDF8823E4
:101FE00081F08091200117DF812F9DDCCE0181607F
:101FF00019DF80E698DC80E096DCDF91CF911F91BD
:102000002BCF80E0DF91CF911F910895CF92DF9287
:10201000EF92FF920F931F93CF93DF93EC018B010D
:102020007A0167D1811133C0E114F10439F0F7016D
:1020300080819181081B190BC80FD91FC12CD12C8D
:102040000115110519F18091E80085FD16C08091F8
:10205000E8008E778093E8009FD3E114F10449F003
:10206000F70180819181C80ED91ED182C08285E09E
:102070000EC03FD1882321F30AC089918093F100DB
:1020800001501109FFEFCF1ADF0ADACF80E0DF91AC
:10209000CF911F910F91FF90EF90DF90CF90089517
:1020A000CF92DF92EF92FF920F931F93CF93DF9324
:1020B000EC018B017A011DD1811133C0E114F104CF
:1020C00039F0F70180819181081B190BC80FD91FC6
:1020D000C12CD12C0115110519F18091E80085FD65
:1020E00016C08091E8008B778093E80055D3E11407
:1020F000F10449F0F70180819181C80ED91ED18287
:10210000C08285E00EC0F5D0882321F30AC08091FB
:10211000F100899301501109FFEFCF1ADF0ADACFDE
:1021200080E0DF91CF911F910F91FF90EF90DF90B2
:10213000CF900895CF92DF92EF92FF920F931F936B
:10214000CF93DF93EC018B017A01D3D0811138C09A
:10215000C8010197C80FD91FE114F10439F0F70144
:1021600080819181081B190BC81BD90BC12CD12C64
:102170000115110521F18091E80085FD16C08091BF
:10218000E8008B778093E80007D3E114F10449F06D
:10219000F70180819181C80ED91ED182C08285E06D
:1021A0000FC0A7D0882321F30BC08091F100888352
:1021B000219701501109FFEFCF1ADF0AD9CF80E034
:1021C000DF91CF911F910F91FF90EF90DF90CF9013
:1021D000089520917601309177012617370748F04E
:1021E0006115710539F42091E8002E772093E800FD
:1021F00001C0B901FC0120E06115710589F18EB3C0
:10220000882309F43FC0853009F43EC08091E8007E
:1022100083FD3CC08091E80082FD2EC08091E800E3
:1022200080FFEACF2091F3008091F20090E0922BA2
:102230006115710559F08031910540F42491209386
:10224000F1003196615071090196F2CF21E040977B
:1022500009F020E08091E8008E778093E800CCCFF1
:102260002111CDCF09C08EB3882361F0853061F094
:102270008091E80083FD0AC08091E80082FFF3CFDF
:1022800080E0089582E0089583E0089581E0089554
:102290008F708093E900EBEEF0E0808181608083B5
:1022A000EDEEF0E010826093EC0040838091EE0050
:1022B000881F8827881F08958091700187FF0FC0AD
:1022C0008091E80082FD04C08EB38111F9CF10C067
:1022D0008091E8008B770AC08EB3882349F0809103
:1022E000E80080FFF9CF8091E8008E778093E800C6
:1022F00008952091E4003091E50095E64091EC00CE
:10230000842F817040FF22C08091E80080FD1CC0B6
:102310008EB3882399F0853099F08091EB0085FD8C
:1023200011C04091E4005091E5002417350731F3C6
:10233000915011F09A01E2CF84E0089582E008956F
:1023400083E0089581E0089580E008954091E800D9
:1023500042FFDECF08950F931F93CF93DF9346D0B4
:102360004DD0C8EDD0E088818F77888388818068E0
:10237000888388818F7D888319BC1EBA10926E0174
:1023800000EE10E0F80180818B7F8083888181607E
:10239000888342E160E080E07BDFE1EEF0E0808175
:1023A0008E7F8083E2EEF0E0808181608083808197
:1023B00088608083F80180818E7F8083888180613E
:1023C0008883DF91CF911F910F910895E8EDF0E0A0
:1023D00080818F7E8083E7EDF0E080818160808363
:1023E00084E082BF81E080936F01B5CFE8EDF0E03B
:1023F00080818E7F80831092E20008951092DA002F
:102400001092E10008951F920F920FB60F921124BF
:102410002F933F934F935F936F937F938F939F93EC
:10242000AF93BF93EF93FF938091DA0080FF1DC0BD
:102430008091D80080FF19C08091DA008E7F809350
:10244000DA008091D90080FF0CC080E189BD82E173
:1024500089BD09B400FEFDCF81E08EBB0E947601EC
:1024600004C019BC1EBA0E9478018091E10080FF6F
:1024700017C08091E20080FF13C08091E2008E7F40
:102480008093E2008091E20080618093E20080917D
:10249000D80080628093D80019BC85E08EBB7BD1C8
:1024A0008091E10084FF2EC08091E20084FF2AC069
:1024B00080E189BD82E189BD09B400FEFDCF809134
:1024C000D8008F7D8093D8008091E1008F7E80932B
:1024D000E1008091E2008F7E8093E2008091E20033
:1024E00081608093E20080916E01882311F084E086
:1024F00007C08091E30087FD02C081E001C083E056
:102500008EBB49D18091E10083FF21C08091E20020
:1025100083FF1DC08091E100877F8093E10082E00E
:102520008EBB10926E018091E1008E7F8093E1005E
:102530008091E2008E7F8093E2008091E2008061D2
:102540008093E20042E160E080E0A2DE24D1FF91CE
:10255000EF91BF91AF919F918F917F916F915F911B
:102560004F913F912F910F900FBE0F901F90189594
:102570001F93CF93DF9300D0CDB7DEB7E0E7F1E054
:1025800088E791E02091F10021938E179F07D1F702
:1025900002D18091E80083FFEAC0809170019091A0
:1025A0007101953009F46FC030F4913071F168F029
:1025B000933059F1DCC0983009F4A9C0993009F47E
:1025C000B5C0963009F0D3C07FC0803899F082380A
:1025D00009F0CDC0809174018F70873008F0C7C0BA
:1025E0008093E9008091EB0085FB882780F91092A9
:1025F000E90001C080E09091E800977F9093E800A7
:102600008093F1001092F1008DC0282F2D7F09F0EA
:10261000AEC0823009F0ABC08091720181112AC036
:10262000809174018F702FEF280F263008F09FC023
:102630008093E9002091EB0020FF1CC0933021F42F
:102640008091EB00806214C09091EB0090619093B8
:10265000EB0021E030E0A90102C0440F551F8A952C
:10266000E2F74093EA001092EA008091EB00886064
:102670008093EB001092E9008091E800877F8093BF
:10268000E8001ADE74C0811172C0109172011F77C8
:102690008091E3008078812B8093E3008091E800B3
:1026A000877F8093E80008DE8091E80080FFFCCF00
:1026B0008091E30080688093E300111102C082E002
:1026C00001C083E08EBB53C08058823008F04FC0F9
:1026D0006091740170917501AE014F5F5F4F809101
:1026E0007201909173010E949F01BC01892B09F432
:1026F0003EC09091E800977F9093E80089819A818D
:1027000068DD8091E8008B778093E80030C08038E6
:1027100071F58091E800877F8093E80080916E01D9
:102720008093F1008091E8008E77A9CF81111FC0BE
:10273000809172019091730199270297C4F480915E
:10274000E800877F8093E8008091720180936E019A
:10275000B3DD80916E01811106C08091E30087FD99
:1027600002C081E001C084E08EBB0E947A018091AA
:10277000E80083FF0AC08091E800877F8093E8002B
:102780008091EB0080628093EB000F900F90DF91BF
:10279000CF911F9108950895CF938EB3882399F018
:1027A000C091E900CF709091EC00892F817090FD6D
:1027B00080E8C82B1092E9008091E80083FDD8DE04
:1027C000CF70C093E900CF910895F999FECF92BDE3
:1027D00081BDF89A992780B50895A6E1B0E044E05C
:1027E00050E01CC0262FF999FECF92BD81BDF89A0A
:1027F000019700B4021639F01FBA20BD0FB6F89445
:10280000FA9AF99A0FBE08950396272FECDFEADFB4
:10281000252FE9DF242FE7CFDC01CB01FC01F9995B
:10282000FECF06C0F2BDE1BDF89A319600B40D921C
:0C28300041505040B8F70895F894FFCFD5
:10283C008001008101009001009101019201189426
:10284C0001219803069E0301A10100A4030001329B
:10285C00332000C0010001010101000001262636D1
:10286C00262626232333232323242C354C081A40D5
:10287C00206830222A32181289AB45CDD888FF1235
:10288C0089AB45CDD888FF4156524953505F4D4BCB
:02289C00320008
:00000001FF
